:020000040000FA
:06000000F26AB0EF0AF005
:020006000000F8
:08000800E9CFDCFFEACFDCFFC9
:10001000E1CFDCFFE2CFDCFF9EB20AD09EAA02D085
:100020005AEF08F09DA89EA802D0E8EF08F0FF0064
:100030009E92152ADDCFE2FFDDCFE1FFDDCFEAFFA3
:06004000DDCFE9FF110015
:0A00460020042E043B044904FFFFD0
:10005000FFFFFFFFFFFFFFFFFFFFFFFFFFFFFFFFB0
:10006000FFFFFFFFFFFFFFFFFFFFFFFFFFFFFFFFA0
:10007000FFFFFFFFFFFFFFFFFFFFFFFFFFFFFFFF90
:10008000FFFFFFFFFFFF1E686D6A160E6F6E6B6845
:100090001198120000C0DCFF01C0DCFF02C0DCFFD1
:1000A00003C0DCFF79D86D86010E006E020E016E72
:1000B000EA0E026E000E036E44EC06F0ADEC06F0A4
:1000C000DDCF03F0DDCF02F0DDCF01F0DDCF00F0BA
:1000D00012001EC000F021EC07F011AC02D0D2ECEF
:1000E00009F01E686D6A1198120014C01EF0ADEC84
:1000F00006F044DA11B0FBD7ADEC06F04CEC03F09F
:10010000F6D700C0DCFFEFA644D0040EEBCF00F022
:10011000050EEB500010D8A43CD0010EEBCFE1FF50
:10012000000EEFB4040FE126040EE26EEF9CE750E0
:100130003C0B340AD8B4EF8CEF9AE650030B006EF8
:10014000050E00C0EBFF040EE7CFEBFFE6500010FA
:10015000D8B4EF8AE650EF34060B090FEBCFE5FF7A
:10016000FF0FEBCFE5FF020EEBCFE5FF030EEB50E9
:10017000E76EE78E010EEFB0030EEFB2020EEF1A3C
:10018000EF96EFB8EF86EF98EF74060EEB6A010F6B
:10019000EB6ADDCF00F0120000C0DCFF01C0DCFF25
:1001A00011981186706A716A726A736A746A756AE4
:1001B000766A776A786A796A7A6A7B6A7C6A7D6A23
:1001C0007E6A7F6A04EE00F0200E006EEE6A002E5A
:1001D000FDD70401380E206F000E216F080E226F2C
:1001E000236B246B256B560E286F040E296F5E0E51
:1001F0002A6F040E2B6F660E2C6F040E2D6F180ED7
:100200002E6F2F6B080E306F080E316F326B336B11
:10021000346B6E0E356F040E366F760E376F040E2C
:10022000386F7E0E396F040E3A6F380E3B6F100E2A
:100230003C6F400E3D6F3E6B3F6B406B860E436FD5
:10024000040E446FC60E456F040E466F060E476FD0
:10025000050E486F180E496F020E4A6F180E4B6F4D
:10026000400E4C6F4D6B4E6B4F6B460E506F050E34
:10027000516F860E526F050E536FC60E546F050EEA
:10028000556F04EE20F03DDF3CDF6E6A686A696AF4
:100290006D8CE90E6D166D866D9C68A602D0689611
:1002A000FCD7160E706E1182DDCF01F0DDCF00F0AD
:1002B00012000401380E3B6F100E3C6F400E3D6F74
:1002C0003E6B3F6B406B860E436F040E446FC60E51
:1002D000456F040E466F060E476F050E486F180EE9
:1002E000496F020E4A6F180E4B6F400E4C6F4D6BEC
:1002F0004E6B4F6B460E506F050E516F860E526F50
:10030000050E536FC60E546F050E556F04EE3BF08D
:10031000F8DEF7DE160E706E1E0E716E118812007A
:1003200000C0DCFFEFA64CD0EFBE4AD0050EEBCFED
:1003300000F0060EEB500012D8A406D0010EEBB46C
:1003400002D0EFAC3DD0EF9C020EEBCFE1FF030EED
:10035000EFB4040FE126040EE26EEF34060B080F33
:10036000EBCFE5FFFF0FEBCFE5FF050EEBCFE5FF92
:10037000060EEB500809E76E010EEBB0E78CEB7050
:10038000E78E010EEBA20AD0EB94030EEBCF00F048
:10039000050EEB50001A02E1010EEB84010EEFB0E6
:1003A000030EEFB2020EEF1AEF96EFB8EF86EF985A
:1003B000EF74EF9AEFBCEF8A050EEB6A010FEB6A60
:1003C000DDCF00F01200F00E0116030E0112EFACAB
:1003D00008D0060EEB52D8A404D00752EB52D8B482
:1003E0000184EFBA26D0019201B823D00190EF34F6
:1003F000060B080FEBCFE1FF010FEBCFE2FF060E7C
:10040000EB50E126070EEB50E222060EEB2A070E18
:10041000D8B0EB2A040EEB06EBCF00F0050ED8A007
:10042000EB06EB500012E7CF00F0D8A402D0EF8A21
:1004300068DE120002C0DCFF03C0DCFFF00E011614
:10044000030E0112EFBA2ED0019201BAEF8E01B85D
:1004500029D0019001AAEF9EEF34060B070FEBCFD6
:10046000E1FF010FEBCFE2FF050EEB50E126060E98
:10047000EB50E22200C0E7FF050EEB2AEBCF02F0C3
:10048000060ED8B0EB2AEBCF03F0030EEB500218A8
:10049000D8A407D0040EEB500318D8A402D0EF8ADA
:1004A000EF9E3EDFDDCF03F0DDCF02F01200F00E55
:1004B0000116030E0112EFBC14D0019201B811D045
:1004C000EF9E01BC0AD0EFBA08D0050EEB52D8A4BB
:1004D00007D0060EEB52D8A403D00190EF8CEF8A20
:1004E0001FDF120002C0DCFFF00E0116030E011226
:1004F000050EEBCF02F0060EEB500210D8A407D089
:100500000184EF50180B180AD8B4018609D0EFA661
:1005100007D0019201B804D001900184EF9E00DF62
:10052000DDCF02F0120004EE20F04DD770801200F3
:1005300004EE2EF07FD704EE2FF0EF90120004EEC1
:100540002FF0EF80120004EE2EF0CCD704EE2EF048
:10055000AED704EE3BF037D704EE49F06BD704EE8C
:100560004AF0EF90120004EE4AF0EF80120004EE21
:1005700049F0B8D700C000F211841200119068A2AF
:1005800003D011806A6A120068A003D0118004DED3
:10059000120068A624D06CCF00F06896000EF76EAB
:1005A000000EF86E00403E0B460FF66E000EF7226E
:1005B000F8220900F5CFE9FF0800F5BE10D0F5CF0D
:1005C000EAFF1180EF300018020B080ED8A4100EBD
:1005D000EF1200B402D095DD1200A2DE120068AC6A
:1005E00003D0689C1180120068AA03D0689A118019
:1005F000120068A803D068981180120068A403D084
:08060000689411801200120041
:080608000101EC0E566F060E15
:10061000576F000E586F010E556F1200016AA3EC60
:1006200002F001B602D019D8F9D712006D98016A0C
:10063000A3EC02F001B402D010D8F9D79FEC02F07D
:100640001200200E016E98EC02F001A002D005D835
:10065000F8D701016C4B6D2B120000C04EF101C0A8
:100660004FF102C050F103C051F104C052F105C076
:1006700053F106C054F1FC041F0B016E0101556FCC
:1006800001EE56F0FDCFEEFFFECFEEFFFFCFEEFF07
:100690000600012EF7D7120011A202D0119226D027
:1006A000010101EE55F05551016E030DF350E9269D
:1006B000014E08D00500ED50FF6EED50FE6EED507E
:1006C000FD6EF6D74EC100F04FC101F050C102F0EF
:1006D00051C103F052C104F053C105F054C106F0FA
:1006E0005851FB6E5751FA6E5651F96E01016A6B03
:1006F0006B6B11AC03D0D2EC09F0119C080E026EAA
:10070000016A93EC02F001A002D0A7DFF9D701A49F
:1007100002D0080E026E01EE62F002500808E926CF
:1007200000C0EFFF022EECD701016C6B6D6B000E69
:10073000FB6E070EFA6E63510C08D8A023D0633508
:10074000E834FC0B500FD8B0FA2AD8B0FB2AF96E67
:10075000C2EF03F0C2EF03F0C2EF03F0C2EF03F009
:10076000C2EF03F0A5EF04F009EF04F0C2EF03F0CD
:10077000B4EF04F0ADEF04F0BCEF04F0B9EF04F017
:10078000C2EF03F06D9896EC02F0B8D74FDF01018D
:100790000350695DD8A006D0D8A408D00250685D87
:1007A000D8B004D068C102F069C103F00250031050
:1007B000D8B412D004C0F6FF05C0F7FF06C0F8FF9A
:1007C0000800F5CF00F03DDF042A000E05220622C6
:1007D0000206D8A00306EAD701016851070BD8A486
:1007E00008D068516C19D8A404D069516D19D8B4D7
:1007F00085D7016AA6EC02F001A280D72EDFF9D7D7
:1008000015DF400E016EA6EC02F001A077D725DFC0
:10081000F8D701016551FF0FD8A40DD06453D8A4B7
:10082000B1D7F80E046E140E056E000E066E120E91
:10083000026E036AABD7FF0FD8A40DD06453D8A4BF
:10084000A1D70A0E046E150E056E000E066E200E60
:10085000026E036A9BD7FF0FD8A494D76405D8B45F
:100860005DD064510308D8A08DD76451D8A4FF0F80
:10087000E8245A0FF66E150ED8B0010FF76E000E71
:10088000D8B0010FF86E0900F5CF04F00800F5CFDD
:1008900005F02A0E0426150E0522000E066E000E27
:1008A000062204C0F6FF05C0F7FF06C0F8FF0800E7
:1008B000F5CF02F0036A6451D8B468D76953D8A45D
:1008C00005D00250685DD8A068C102F0AFDE0250CA
:1008D000D8B482D7F5CF00F0B4DE024E7DD7030E38
:1008E000006EAFDE024E78D7020E0426000E0522FF
:1008F000062204C0F6FF05C0F7FF06C0F8FF080097
:10090000F5CF00F09EDE024E67D7006A9ADE024EF7
:1009100063D7042A000E05220622EBD787DEB2EC4D
:1009200009F0118C0050026E020F006E8ADE030E79
:10093000006E87DE025205E00206C9EC09F081DE96
:10094000F9D7D2EC09F0119C47D770DE400EA6EC27
:1009500002F064DE64C16EFFD1D6010164516A6F9A
:10096000006E59EC01F04CD76AC100F06ADE5EDE21
:1009700033D764C16BF144D76BC100F062DE56DE41
:020980002BD773
:0E098200120076EC07F0010E006E55EC07F047
:10099000120E006E55EC07F0210E006E55EC07F0BC
:1009A000120046EC07F00028026ED4EC09F0128029
:1009B000024E05D046EC07F0E7EC09F0F9D7EFEC72
:1009C00009F01290120076EC07F0020E006E55EC62
:1009D00007F0B2EC09F0118E0028026E55EC07F01A
:1009E000024E05D0C9EC09F055EC07F0F9D7D2EC6E
:1009F00009F0119E120046EC07F000C08AFF1200B9
:100A000046EC07F000C004F000C006F0B5EC07F0BB
:100A100004502008D8A01200056E055207E0D890B7
:100A200000360136023603360506F7D78B900000F4
:100A3000000000008990045212E003AE8B9203BEC6
:100A40008B8200360136023603368B80009082B4EA
:100A5000008004060000000000008B90ECD700002E
:100A60000000000089808B9200C004F076EC07F053
:100A7000030E006E55EC07F006C000F055EC07F0D1
:100A800004C000F055EC07F001C000F055EC07F091
:100A900002C000F055EC07F003C000F055EC07F081
:100AA000120046EC07F000C004F000C006F0B5EC00
:100AB00007F004502008D8A01200056E055207E088
:100AC000D89000360136023603360506F7D78B90EC
:100AD0000000000000008992045212E003AE8B92E5
:100AE00003BE8B8200360136023603368B800090BF
:100AF00082B4008004060000000000008B90ECD758
:100B000000000000000089828B9200C004F076ECA7
:100B100007F0040E006E55EC07F006C000F055EC2F
:100B200007F004C000F055EC07F001C000F055ECF0
:100B300007F002C000F055EC07F003C000F055ECE0
:100B400007F0120046EC07F000C003F046EC07F097
:100B500000C001F088EC07F047EC09F0046A03C01C
:100B600000F04FEC09F013A014D001EE00F0025297
:100B700010E00206EECF00F0E9CFDCFFEACFDCFFA9
:100B80007EEC09F0DDCFEAFFDDCFE9FF042A13B0E8
:100B9000EED7A8EC09F076EC07F0050E006E55ECE8
:100BA00007F0006A13B0008055EC07F004C000F0B5
:100BB00055EC07F0120046EC07F000C001F046ECDF
:100BC00007F0005040080050D8A0400E026E47ECDD
:100BD00009F001C000F083EC09F0046A13A019D0F9
:100BE0000480025016E0036E01EE00F0E9CFDCFF56
:100BF000EACFDCFF89EC09F0DDCFEAFFDDCFE9FFCA
:100C000000C0EEFF030603E09DEC09F0EFD7A6EC71
:100C100009F0A8EC09F076EC07F0060E006E55EC32
:100C200007F004C000F055EC07F002C000F055ECEE
:100C300007F001EE00F002520EE0EECF00F0E9CF37
:100C4000DCFFEACFDCFF55EC07F0DDCFEAFFDDCFBC
:080C5000E9FF0206F0D71200D3
:080C5800146A0101B30E416FA3
:100C6000010E426F010EE8CFB3F16E0E436F010E1D
:100C7000446F000EE8CF6EF1A10E456F000E466F77
:100C8000000EE8CFA1F0120000C0DCFF01C0DCFFC5
:100C900005C0DCFF030E056E11EE41F0E6CFE9FF63
:100CA000E6CFEAFFEF5203E0052EF8D7FF00DDCFD5
:100CB00005F000C0E1FF01C0E2FF00C0E6FF01C097
:100CC000E6FF02C0E6FF03C0E6FF04C0E6FF05C082
:100CD000E6FF06C0E6FF07C0E6FFEE2A000E0006AC
:100CE000015AE55200C0EEFF01C0EEFF00C0EEFF6A
:100CF00001C0EEFFE1CFEEFFE2CFEEFF02C0EEFF5C
:100D000003C0EEFFDDCF01F0DDCF00F0120008C020
:100D1000DCFF09C0DCFF0AC0DCFF0BC0DCFF0CC03D
:100D2000DCFF0DC0DCFF0EC0DCFF0FC0DCFF10C01D
:100D3000DCFF13D8DDCF10F0DDCF0FF0DDCF0EF0EC
:100D4000DDCF0DF0DDCF0CF0DDCF0BF0DDCF0AF005
:100D5000DDCF09F0DDCF08F0120000C0DCFF01C0DC
:100D6000DCFF02C0DCFF03C0DCFF04C0DCFF05C009
:100D7000DCFF06C0DCFF07C0DCFFE9CF00F0EACFF4
:100D800001F001EE41F01444E926EE50EFCFEAFF06
:100D9000E96EFC501F0B026EEE6E00C0EEFF01C04C
:100DA000EEFFE1CFEEFFE2CFEEFFD9CFEEFFDACFDD
:100DB000EEFFFD50EE6EFE50EE6E0600022EF9D7ED
:100DC000142A14500208D8A0146A01EE41F0144409
:100DD000E926EE50EFCFEAFFE96EEF52F1E0EECFF9
:100DE00001F0EECF02F0EECF03F0F29EFC6AEECF00
:100DF000E1FFEECFE2FFEECFD9FFEECFDAFFF28ECA
:100E00000144FF0FE926000EEA220500ED50FE6EB8
:100E1000ED50FD6E012EF9D702C0E9FF03C0EAFFD5
:100E2000DDCF07F0DDCF06F0DDCF05F0DDCF04F03C
:100E3000DDCF03F0DDCF02F0DDCF01F0DDCF00F03C
:100E4000120000500208D8A00DD001EE41F000447D
:100E5000E926EE50EFCFEAFFE96EEF6A0050145C2E
:100E6000D8B4AED7120001EE41F01444E926EE509A
:0A0E7000EFCFEAFFE96EEF6AA3D7A7
:060E7A00ADEC06F011BA18
:100E8000C2D0120001014069C1EF04F001C0DCFFD3
:100E9000DDCF01F0F2DF01C0DCFF016AA9EC02F056
:100EA00001B0F6D7DDCF01F0120001C0DCFF145015
:100EB00001014019D8A40BD0016AACEC02F001A0EA
:100EC00006D0DDCF01F0D9DF01C0DCFFF5D7DDCFE3
:100ED00001F0120001C0DCFF200E016EACEC02F04C
:100EE000D89401B0D884DDCF01F01200010140BFD9
:100EF00006D04051141805E087EC06F0F7D714C06F
:100F000040F11200145001014019D8B44069120098
:100F100000C0DCFF01C0DCFF026A015214E001EEF8
:100F200000F0E9CFDCFFEACFDCFFB0DFDDCFEAFF86
:100F3000DDCFE9FF02503F08D8A003D000C0EEFF8C
:100F4000022A012EEED7DDCF01F0DDCF00F0120036
:100F50009DDF00C001F09ADF120098DF00C002F0B0
:100F600095DF00C001F092DF120090DF00C003F0B7
:100F70008DDF00C002F08ADF00C001F087DF1200C1
:100F800000C0DCFF01C000F090DFDDCF00F08DDF9E
:100F9000120000C0DCFF02C000F087DF01C000F0DB
:100FA00084DFDDCF00F081DF120000C0DCFF03C072
:100FB00000F07BDF02C000F078DF01C000F075DFD9
:100FC000DDCF00F072DF120000C0DCFF01C0DCFFEB
:100FD00002C0DCFF03C0DCFF04C0DCFF210E006E9A
:100FE000020E016E060E026E100E036E44EC06F049
:100FF000DDCF04F0DDCF03F0DDCF02F0DDCF01F077
:10100000DDCF00F01200FC6A22EE20F0119A11AE42
:1010100003D0119ED2EC09F012A003D01290EFEC95
:1010200009F02BDF11A8FDD7FC6A22EE20F0145046
:1010300001014019D8B4406929DF0500280EFD6E72
:10104000100EFE6E000EFF6E00500D08D8A01CD0D2
:1010500000C0DCFF01C0DCFF016AD8900036013619
:10106000CC0E0024F66E150E0120F76EF86ADDCF67
:1010700001F0DDCF00F00900F5B006D0F550090011
:08108000F5CFFAFFFB6AF96EDF
:081088000201496B4A6B0001F3
:10109000E66BE76B00011A6AAB6A240EAC6E080EB1
:1010A000B86E670EAF6E000EB06E900EAB6E9D8A7E
:1010B000128C1200AB5000011C6EAE501B6EABA226
:1010C00002D0AB98AB881CB417D002014951010F74
:1010D0004A5DD8A0210F00080FE202EE4BF0495103
:1010E000E926000EEA221BC0EFFF4929200802E290
:1010F000496B01D0492B128A1AEF00F001C0DCFFC6
:10110000016A02014A51495DD8A0210F006E0150C9
:10111000D8A40068DDCF01F0120001C0DCFF016A35
:1011200002014951010F4A5DD8A0210F006E015004
:10113000D8A40068DDCF01F01200120012BA03D06B
:1011400087EC06F0FBD7020102EE4BF04A51E9268C
:10115000000EEA22EFCF00F04A29200802E24A6B93
:1011600001D04A2B129A02014A51495DD8A0210FA1
:10117000000801E2128A120000011AA003D087ECD5
:1011800006F0FAD71A80120000011A90120012BC61
:1011900003D087EC06F0FBD7000100EEE8F0E65143
:1011A000E926000EEA2200C0EFFFE629100802E25D
:1011B000E66B01D0E62B129C0001E651010FE75DC2
:1011C000D8A0110F000801E2128C9D8812001200B5
:1011D000128C0001E751E65DD8A0110F00081BE258
:1011E000000100EEE8F0E751E926000EEA22EFCF19
:1011F0001BF0E729100802E2E76B01D0E72B0001A2
:101200001B50AD6E0001E751E65DD8A0110F00083C
:1012100002E21AEF00F09D981AEF00F00001E7518A
:10122000E65DD8A0110F000803E287EC06F0F6D7C0
:10123000ACB203D087EC06F0FBD70000ACA2F8D725
:0212400012009A
:0E12420000D000D000D000D000D000D000D0EE
:1012500000D000D000D000D000D000D000D000D00E
:1012600000D000D000D000D000D000D000D000D0FE
:1012700000D000D000D000D00000120081B21200D7
:1012800087EC06F081A2FCD7DCDF1200120012BE50
:1012900005D0128E938293808A928A90120000C0A9
:1012A000DCFF01C0DCFFD89000369382CADFE6DFA6
:1012B0009380C7DF9390C5DF9392C3DF080E016E62
:1012C00000BE02D0939001D093800036BADF9382A3
:1012D000B8DFD4DF9392B5DF012EF2D79380B1DF70
:1012E0009382AFDFCBDF139081B001D01380939254
:1012F000A8DFDDCF01F0DDCF00F0120000C0DCFF81
:1013000001C0DCFFDBD700C0DCFF01C0DCFFD88000
:10131000CBD701C0DCFF9380080E016E0036009031
:1013200090DF93828EDFAADF81B000809392012E3E
:10133000F5D787DFDDCF01F01200939082DF938233
:1013400080DF9CDF939293807CDF12009380F6D73E
:101350009392939076DF938274DF90DF938071DFB6
:02136000120079
:0E136200120001C0DCFF02C0DCFF0DEC0AF03F
:10137000016A026A16EC0AF019EC0AF000505008F3
:10138000D8A0006A00C04CF1DDCF02F0DDCF01F043
:101390001200006A01014C53D8B403D04C0719EC79
:1013A0000AF0120014EF0AF001C0DCFF02C0DCFFFB
:1013B0000DEC0AF0010E016E026A16EC0AF0010152
:1013C000500E4C6FDDCF02F0DDCF01F012000101B5
:1013D0004C53D8B403D04C0725EC0AF0120000C0DF
:1013E000DCFF01C0DCFF02C0DCFF016A026A16EC10
:1013F0000AF001014C515008006E25EC0AF040EC57
:101400000AF014EC0AF0DDCF02F0DDCF01F0DDCF01
:0414100000F01200D6
:0C14140001014D6B120012A203D087EC06
:1014200006F0FBD7128212001292120001C04DF199
:101430001200A6B219EF0AF04DC1A9FFA66AA68054
:1014400001014D2BA8CF00F0120001C0DCFFA6B2B5
:1014500027EF0AF04DC1A9FF00C0A8FFA66AA68425
:10146000F2CF01F0550EF29EA76EAA0EA76EA682CD
:1014700001BEF28EA69401014D2BDDCF01F01200CA
:08148000A6B240EF0AF01200D1
:08148800010115C047F1F90E46
:10149000486F496B4A6B4B6BF19E9388ADEC06F03D
:1014A00011A602D01196118A155001014719D8B41E
:1014B00022D0472B4A514B1108E0000E4A074B5BE4
:1014C0004A514B1118E18A9416D081A805D0010128
:1014D000F90E486F496B0FD0010148514915010FB2
:1014E000D8B009D0000E4807495BD8B004D0FA0E36
:0814F0004A6F4B6B8A84D2D7CE
:0814F80012011001FF00FF08C2
:10150000C016C905180002030001090220000101EC
:101510000080FA0904000002FF00FF000705010235
:10152000400001070581024000010403090414037F
:10153000456D62656420496E63400355314558200E
:101540005553422064656D6F6E7374726174696F78
:101550006E206669726D77617265000004000F008D
:10156000800EF16EF06A9D6AA06A9E6AA16A9F6A07
:10157000A26AD09E116A126A136A05EC0BF0D5ECD0
:101580000AF02CEC06F044EC08F00AEC0AF0B1EC9E
:1015900009F042EC07F046EC09F043EC00F004ECF3
:0A15A00003F0F4EC0AF0FFEF0AF08C
:0615AA00C26A0F0EC16EC3
:1015B000070EB46EF18E030E896E926A8A6A100E5F
:0C15C000936E8B6AB40E946E846A120065
:0415CC0028100100E2
:1015D00001008409A209C609010001000100F60901
:0815E000000AA20A440BB60B3D
:0815E800156AC70ECB6E750EEB
:0E15F000CA6ECC6A9E929D82F28CF28E120020
:0215FE004AECB5
:0A16000000F0E4EC07F044EF0AF0FC
:06160A0020EE5FF012006B
:020000040030CA
:02000000E13FDE
:02000200F6FE08
:02000400FFF803
:020006009AFF5F
:02000800FFFFF8
:02000A00FFFFF6
:02000C00FFFFF4
:0200000400F00A
:050000000455314558D4
:00000001FF
