:020000040000FA
:06000000F26AC7EF0AF0EE
:020006000000F8
:08000800E9CFDCFFEACFDCFFC9
:10001000E1CFDCFFE2CFDCFFA1A002D014EF08F0BB
:100020009EB205D09EAA02D052EF09F0FF009E9228
:10003000312ADDCFE2FFDDCFE1FFDDCFEAFFDDCF0B
:04004000E9FF1100C3
:0C00440020042E043B044904FFFFFFFFD2
:10005000FFFFFFFFFFFFFFFFFFFFFFFFFFFFFFFFB0
:10006000FFFFFFFFFFFFFFFFFFFFFFFFFFFFFFFFA0
:10007000FFFFFFFFFFFFFFFFFFFFFFFFFFFFFFFF90
:10008000FFFFFFFF36686D6A160E6F6E6B68119882
:10009000120000C0DCFF01C0DCFF02C0DCFF03C0B7
:1000A000DCFF79D86D860A0E006E020E016EE80E36
:1000B000026E000E036E03EC07F06CEC07F0DDCF70
:1000C00003F0DDCF02F0DDCF01F0DDCF00F0120054
:1000D00036C000F0E0EC07F011AC02D0D0EC09F033
:1000E00036686D6A1198120014C036F06CEC07F097
:1000F00044DA11B0FBD76CEC07F076EC05F0F6D7DC
:1001000000C0DCFFEFA644D0040EEBCF00F0050EDC
:10011000EB500010D8A43CD0010EEBCFE1FF000E55
:10012000EFB4040FE126040EE26EEF9CE7503C0BA7
:10013000340AD8B4EF8CEF9AE650030B006E050E2C
:1001400000C0EBFF040EE7CFEBFFE6500010D8B481
:10015000EF8AE650EF34060B090FEBCFE5FFFF0FF8
:10016000EBCFE5FF020EEBCFE5FF030EEB50E76EA2
:10017000E78E010EEFB0030EEFB2020EEF1AEF960C
:10018000EFB8EF86EF98EF74060EEB6A010FEB6A9B
:10019000DDCF00F0120000C0DCFF01C0DCFF1198D1
:1001A0001186706A716A726A736A746A756A766AAD
:1001B000776A786A796A7A6A7B6A7C6A7D6A7E6A1B
:1001C0007F6A04EE00F0200E006EEE6A002EFDD76E
:1001D0000401380E206F000E216F080E226F236B72
:1001E000246B256B560E286F040E296F5E0E2A6F46
:1001F000040E2B6F660E2C6F040E2D6F180E2E6FD3
:100200002F6B080E306F080E316F326B336B346B0F
:100210006E0E356F040E366F760E376F040E386F24
:100220007E0E396F040E3A6F380E3B6F100E3C6F26
:10023000400E3D6F3E6B3F6B406B860E436F040E6E
:10024000446FC60E456F040E466F060E476F050ECF
:10025000486F180E496F020E4A6F180E4B6F400E12
:100260004C6F4D6B4E6B4F6B460E506F050E516FC2
:10027000860E526F050E536FC60E546F050E556FE6
:1002800004EE20F03DDF3CDF6E6A686A696A6D8CBF
:10029000E90E6D166D866D9C68A602D06896FCD737
:1002A000160E706E1182DDCF01F0DDCF00F012006E
:1002B0000401380E3B6F100E3C6F400E3D6F3E6BDD
:1002C0003F6B406B860E436F040E446FC60E456F46
:1002D000040E466F060E476F050E486F180E496FE5
:1002E000020E4A6F180E4B6F400E4C6F4D6B4E6BEB
:1002F0004F6B460E506F050E516F860E526F050EF6
:10030000536FC60E546F050E556F04EE3BF0F8DECA
:10031000F7DE160E706E1E0E716E1188120000C090
:10032000DCFFEFA64CD0EFBE4AD0050EEBCF00F0BD
:10033000060EEB500012D8A406D0010EEBB402D08A
:10034000EFAC3DD0EF9C020EEBCFE1FF030EEFB41C
:10035000040FE126040EE26EEF34060B080FEBCF1C
:10036000E5FFFF0FEBCFE5FF050EEBCFE5FF060E38
:10037000EB500809E76E010EEBB0E78CEB70E78EEF
:10038000010EEBA20AD0EB94030EEBCF00F0050EAA
:10039000EB50001A02E1010EEB84010EEFB0030EE8
:1003A000EFB2020EEF1AEF96EFB8EF86EF98EF7408
:1003B000EF9AEFBCEF8A050EEB6A010FEB6ADDCF17
:1003C00000F01200F00E0116030E0112EFAC08D07F
:1003D000060EEB52D8A404D00752EB52D8B40184D5
:1003E000EFBA26D0019201B823D00190EF34060B6A
:1003F000080FEBCFE1FF010FEBCFE2FF060EEB5052
:10040000E126070EEB50E222060EEB2A070ED8B0CB
:10041000EB2A040EEB06EBCF00F0050ED8A0EB069E
:10042000EB500012E7CF00F0D8A402D0EF8A68DECC
:10043000120002C0DCFF03C0DCFFF00E0116030E49
:100440000112EFBA2ED0019201BAEF8E01B829D075
:10045000019001AAEF9EEF34060B070FEBCFE1FFEF
:10046000010FEBCFE2FF050EEB50E126060EEB503D
:10047000E22200C0E7FF050EEB2AEBCF02F0060EEA
:10048000D8B0EB2AEBCF03F0030EEB500218D8A440
:1004900007D0040EEB500318D8A402D0EF8AEF9EC9
:1004A0003EDFDDCF03F0DDCF02F01200F00E0116CB
:1004B000030E0112EFBC14D0019201B811D0EF9ECF
:1004C00001BC0AD0EFBA08D0050EEB52D8A407D071
:1004D000060EEB52D8A403D00190EF8CEF8A1FDFF9
:1004E000120002C0DCFFF00E0116030E0112050E11
:1004F000EBCF02F0060EEB500210D8A407D0018417
:10050000EF50180B180AD8B4018609D0EFA607D00F
:10051000019201B804D001900184EF9E00DFDDCF8D
:1005200002F0120004EE20F04DD77080120004EEAD
:100530002EF07FD704EE2FF0EF90120004EE2FF094
:10054000EF80120004EE2EF0CCD704EE2EF0AED7E2
:1005500004EE3BF037D704EE49F06BD704EE4AF0D7
:10056000EF90120004EE4AF0EF80120004EE49F022
:10057000B8D700C009F211841200119068A203D00C
:1005800011806A6A120068A003D0118004DE120094
:1005900068A624D06CCF00F06896000EF76E000EAF
:1005A000F86E00403E0B440FF66E000EF722F82264
:1005B0000900F5CFE9FF0800F5BE10D0F5CFEAFF3E
:1005C0001180EF300018020B080ED8A4100EEF12A5
:1005D00000B402D095DD1200A2DE120068AC03D098
:1005E000689C1180120068AA03D0689A11801200DA
:1005F00068A803D068981180120068A403D068949A
:060600001180120012003F
:0A0606000101006912006CEC07F01E
:1006100011BAAAD0120001C0DCFFDDCF01F0F6DF75
:1006200001C0DCFF016AA8EC02F001B0F6D7DDCF13
:1006300001F01200F0DF00C0DCFFEDDF00C001F0D0
:10064000DDCF00F01200E7DF00C0DCFFE4DF00C018
:1006500001F0E1DF00C002F0DDCF00F01200DBDFCF
:1006600000C0DCFFD8DF00C001F0D5DF00C002F021
:10067000D2DF00C003F0DDCF00F0120000C0DCFFCD
:1006800001C0DCFF026A015214E001EE01F0E9CF83
:10069000DCFFEACFDCFFBFDFDDCFEAFFDDCFE9FF24
:1006A00002503F08D8A003D000C0EEFF022A012E5E
:1006B000EED7DDCF01F0DDCF00F0120012A403D0A1
:1006C00046EC07F0FBD71284010100511418D8B48E
:1006D0001286120012941296120001C0DCFF200E46
:1006E000016EABEC02F0D89401B0D884DDCF01F0FC
:1006F000120001C0DCFF200E016EABEC02F001A085
:1007000003D046EC07F0F7D7DDCF01F0120001C0AF
:10071000DCFF016AABEC02F001A006D0DDCF01F0F6
:1007200075DF01C0DCFFF5D7DDCF01F0120000C09E
:10073000DCFF01C0DCFF02C0DCFF03C0DCFF2A0ECF
:10074000006E020E016E640E026E070E036E03EC65
:1007500007F0DDCF03F0DDCF02F0DDCF01F0DDCF1C
:1007600000F0120014C000F1FC6A22EE29F0119A88
:1007700012A601D0AFDF11AE03D0119ED0EC09F06C
:1007800012A003D01290EDEC09F040DF11A8FDD7C4
:10079000FC6A22EE29F03FDF00500D08D8A01CD0E3
:1007A00000C0DCFF01C0DCFF016AD89000360136D2
:1007B000FE0E0024F66E150E0120F76EF86ADDCFEE
:1007C00001F0DDCF00F00900F5B006D0F5500900CA
:1007D000F5CFFAFFFB6AF96EDED7010E006E97DFE8
:1007E000100E006E94DF1D0E006E91DFD1D713DF67
:1007F0000028026ED2EC09F01280024E04D00BDF0A
:10080000E5EC09F0FAD7EDEC09F01290C1D7020E31
:10081000006E7DDFB0EC09F0118E0028026E77DFEC
:10082000024E04D0C7EC09F072DFFAD7D0EC09F021
:10083000119EAED7F0DE00C08AFFAAD7ECDE00C062
:1008400004F000C006F00BDF04502008D8A0A0D7A9
:10085000056E055207E0D8900036013602360336A1
:100860000506F7D78B900000000000008990045225
:1008700012E003AE8B9203BE8B8200360136023645
:1008800003368B80009082B40080040600000000D4
:1008900000008B90ECD700000000000089808B9254
:1008A00000C004F00BDF030E006E31DF06C000F065
:1008B0002EDF04C000F02BDF01C000F028DF02C0F3
:1008C00000F025DF03C000F022DF04DF61D7A3DEE4
:1008D00000C004F000C006F0C2DE04502008D8A01A
:1008E00057D7056E055207E0D8900036013602361C
:1008F00003360506F7D78B900000000000008992B0
:10090000045212E003AE8B9203BE8B820036013696
:10091000023603368B80009082B40080040600000B
:10092000000000008B90ECD70000000000008982DE
:100930008B9200C004F0C2DE040E006EE8DE06C03A
:1009400000F0E5DE04C000F0E2DE01C000F0DFDE12
:1009500002C000F0DCDE03C000F0D9DEBBDE18D739
:100960005ADE00C003F057DE00C001F087DED3EC92
:1009700008F0046A03C000F0DBEC08F013A014D008
:1009800001EE01F0025210E00206EECF00F0E9CFD6
:10099000DCFFEACFDCFF0AEC09F0DDCFEAFFDDCFB8
:1009A000E9FF042A13B0EED734EC09F087DE050E18
:1009B000006EADDE006A13B00080A9DE04C000F056
:1009C000A6DE88DEE5D627DE00C001F024DE00507A
:1009D00040080050D8A0400E026ED3EC08F001C0D1
:1009E00000F00FEC09F0046A13A019D00480025043
:1009F00016E0036E01EE01F0E9CFDCFFEACFDCFF89
:100A000015EC09F0DDCFEAFFDDCFE9FF00C0EEFF16
:100A1000030603E029EC09F0EFD732EC09F034ECDF
:100A200009F04CDE060E006E72DE04C000F06FDED0
:100A300002C000F06CDE01EE01F002520DE0EECFDC
:100A400000F0E9CFDCFFEACFDCFF61DEDDCFEAFFBB
:0C0A5000DDCFE9FF0206F1D73DDE9AD6AB
:040A5C000101400E46
:100A6000536F0B0E546F000E556F010E526F120034
:100A7000016AA2EC02F001B602D019D8F9D712002F
:100A80006D98016AA2EC02F001B402D010D8F9D737
:100A90009EEC02F01200200E016E97EC02F001A015
:100AA00002D005D8F8D70101694B6A2B120000C0AB
:100AB0004BF101C04CF102C04DF103C04EF104C036
:100AC0004FF105C050F106C051F1FC041F0B016E3F
:100AD0000101526F01EE53F0FDCFEEFFFECFEEFFAE
:100AE000FFCFEEFF0600012EF7D7120011A202D0B1
:100AF000119226D0010101EE52F05251016E030D08
:100B0000F350E926014E08D00500ED50FF6EED5080
:100B1000FE6EED50FD6EF6D74BC100F04CC101F0FA
:100B20004DC102F04EC103F04FC104F050C105F0B9
:100B300051C106F05551FB6E5451FA6E5351F96E86
:100B40000101676B686B11AC03D0D0EC09F0119C0C
:100B5000080E026E016A92EC02F001A002D0A7DF3B
:100B6000F9D701A402D0080E026E01EE5FF0025028
:100B70000808E92600C0EFFF022EECD70101696BDF
:100B80006A6B000EFB6E0B0EFA6E60510C08D8A05B
:100B900023D06035E834FC0BA40FD8B0FA2AD8B0C3
:100BA000FB2AF96EECEF05F0ECEF05F0ECEF05F049
:100BB000ECEF05F0ECEF05F0CFEF06F033EF06F0C9
:100BC000ECEF05F0DEEF06F0D7EF06F0E6EF06F00B
:100BD000E3EF06F0ECEF05F06D9895EC02F0B8D776
:100BE0004FDF01010350665DD8A006D0D8A408D01D
:100BF0000250655DD8B004D065C102F066C103F053
:100C000002500310D8B412D004C0F6FF05C0F7FF9D
:100C100006C0F8FF0800F5CF00F03DDF042A000E03
:100C2000052206220206D8A00306EAD70101655173
:100C3000070BD8A408D065516919D8A404D066510F
:100C40006A19D8B485D7016AA5EC02F001A280D751
:100C50002EDFF9D715DF400E016EA5EC02F001A0E2
:100C600077D725DFF8D701016251FF0FD8A40DD047
:100C70006153D8A4B1D7260E046E150E056E000E72
:100C8000066E120E026E036AABD7FF0FD8A40DD00A
:100C90006153D8A4A1D7380E046E150E056E000E50
:100CA000066E200E026E036A9BD7FF0FD8A494D75E
:100CB0006105D8B45DD061510308D8A08DD76151CA
:100CC000D8A4FF0FE824880FF66E150ED8B0010FD8
:100CD000F76E000ED8B0010FF86E0900F5CF04F0E2
:100CE0000800F5CF05F0580E0426150E0522000E5B
:100CF000066E000E062204C0F6FF05C0F7FF06C010
:100D0000F8FF0800F5CF02F0036A6151D8B468D744
:100D10006653D8A405D00250655DD8A065C102F025
:100D2000AFDE0250D8B482D7F5CF00F0B4DE024E69
:100D30007DD7030E006EAFDE024E78D7020E04267A
:100D4000000E0522062204C0F6FF05C0F7FF06C00C
:100D5000F8FF0800F5CF00F09EDE024E67D7006A6C
:100D60009ADE024E63D7042A000E05220622EBD734
:100D700087DEB0EC09F0118C0050026E020F006E9D
:100D80008ADE030E006E87DE025205E00206C7EC23
:100D900009F081DEF9D7D0EC09F0119C47D770DE5D
:100DA000400EA5EC02F064DE61C16EFFD1D60101F8
:100DB0006151676F006E58EC01F04CD767C100F0CD
:100DC0006ADE5EDE33D761C168F144D768C100F0E6
:060DD00062DE56DE2BD7A7
:0A0DD600146A0101B00E416F010E16
:100DE000426F010EE8CFB0F16B0E436F010E446FFE
:100DF000000EE8CF6BF1A40E456F000E466F000E9B
:100E0000E8CFA4F0120000C0DCFF01C0DCFF05C089
:100E1000DCFF030E056E11EE41F0E6CFE9FFE6CFF1
:100E2000EAFFEF5203E0052EF8D7FF00DDCF05F013
:100E300000C0E1FF01C0E2FF00C0E6FF01C0E6FF25
:100E400002C0E6FF03C0E6FF04C0E6FF05C0E6FF00
:100E500006C0E6FF07C0E6FFEE2A000E0006015AB4
:100E6000E55200C0EEFF01C0EEFF00C0EEFF01C082
:100E7000EEFFE1CFEEFFE2CFEEFF02C0EEFF03C0D8
:100E8000EEFFDDCF01F0DDCF00F0120008C0DCFF87
:100E900009C0DCFF0AC0DCFF0BC0DCFF0CC0DCFFBC
:100EA0000DC0DCFF0EC0DCFF0FC0DCFF10C0DCFF9C
:100EB00013D8DDCF10F0DDCF0FF0DDCF0EF0DDCF9A
:100EC0000DF0DDCF0CF0DDCF0BF0DDCF0AF0DDCF84
:100ED00009F0DDCF08F0120000C0DCFF01C0DCFF2C
:100EE00002C0DCFF03C0DCFF04C0DCFF05C0DCFF88
:100EF00006C0DCFF07C0DCFFE9CF00F0EACF01F05D
:100F000001EE41F01444E926EE50EFCFEAFFE96E1E
:100F1000FC501F0B026EEE6E00C0EEFF01C0EEFF34
:100F2000E1CFEEFFE2CFEEFFD9CFEEFFDACFEEFF5B
:100F3000FD50EE6EFE50EE6E0600022EF9D7142A1A
:100F400014500208D8A0146A01EE41F01444E926B6
:100F5000EE50EFCFEAFFE96EEF52F1E0EECF01F095
:100F6000EECF02F0EECF03F0F29EFC6AEECFE1FF8F
:100F7000EECFE2FFEECFD9FFEECFDAFFF28E0144E3
:100F8000FF0FE926000EEA220500ED50FE6EED503F
:100F9000FD6E012EF9D702C0E9FF03C0EAFFDDCFE5
:100FA00007F0DDCF06F0DDCF05F0DDCF04F0DDCFBB
:100FB00003F0DDCF02F0DDCF01F0DDCF00F0120055
:100FC00000500208D8A00DD001EE41F00044E926FF
:100FD000EE50EFCFEAFFE96EEF6A0050145CD8B430
:100FE000AED7120001EE41F01444E926EE50EFCFE7
:080FF000EAFFE96EEF6AA3D7E6
:080FF8001E6A160E256E950E0F
:10100000296E2A6AC60E2B6E2C6A070E2D6E010EF3
:101010002E6E360E2F6E750E306E610EB16E040E92
:10102000BA6EA190A0801200BBCF21F0BCCF22F0FD
:10103000BA50BA6A010ABA6E1F50215C236E205062
:101040002258246E21C01FF022C020F0A19023500E
:101050002F5C24503058D8A038D023502D5C245019
:101060002E58D8A01FD023502B5C24502C58D8A029
:101070002CD02350295C24502A58D8B026D025667D
:1010800025062552D8A403D01E9019EF00F01EB0FB
:1010900004D01E821E8019EF00F01EA219D01E90EF
:1010A0001E881FD01EB00AD01E942552D8B41E84AC
:1010B000160E256E1E801E9219EF00F01E901EB2B5
:1010C00007D01EB408D01E980CD0160E256E1E90A8
:1010D0001E9619EF00F0266A800E276E1E8619EF05
:1010E00000F01EA618D027520DE002EE00F02650A8
:1010F000E926271CEF1627501EB8EF12D89027328A
:1011000019EF00F01EB809D0262A26500808D8A0EA
:10111000DFD7800E276E19EF00F0262A1E9613B235
:10112000FAD726500108D8B0F6D726C028F002EE2C
:1011300000F0000EEE18282EFDD7E866ECE126063A
:1011400026C015F002EE00F010EE16F0EECFE6FF2E
:0A115000262EFCD7138219EF00F0E1
:06115A0000D000D000D01F
:1011600000D000D000D000D000D000D000D000D0FF
:1011700000D000D000D000D000D000D000D000D0EF
:1011800000D000D000D000D000D000D000D000D0DF
:101190000000120081B2120046EC07F081A2FCD7D9
:1011A000DCDF1200120012BE05D0128E93829380F3
:1011B0008A928A90120000C0DCFF01C0DCFFD89048
:1011C00000369382CADFE6DF9380C7DF9390C5DFE6
:1011D0009392C3DF080E016E00BE02D0939001D03F
:1011E00093800036BADF9382B8DFD4DF9392B5DF05
:1011F000012EF2D79380B1DF9382AFDFCBDF139064
:1012000081B001D013809392A8DFDDCF01F0DDCF54
:1012100000F0120000C0DCFF01C0DCFFDBD700C023
:10122000DCFF01C0DCFFD880CBD701C0DCFF93809E
:10123000080E016E0036009090DF93828EDFAADFE9
:1012400081B000809392012EF5D787DFDDCF01F0CA
:101250001200939082DF938280DF9CDF93929380D1
:101260007CDF12009380F6D79392939076DF93827F
:0A12700074DF90DF938071DF12003D
:06127A0002016A6B010E87
:101280006B6F6C6F0001A16BAB6A240EAC6E080E25
:10129000B86E670EAF6E000EB06E900EAB6E9D8A8C
:1012A000128C1200AB500001A26FAE50A36FABA224
:1012B00002D0AB98AB88A2B50FD00201200E6A5DB8
:1012C000D8B00AD002EE6CF06B51A3C0EBFF6A2BD2
:1012D000200E6B4F6B6F128A19EF00F002016A51FA
:1012E000006E120002016A512008006E1200120006
:1012F00012BA03D046EC07F0FBD70201F29E02EED1
:101300006CF06C51EBCF00F06A07200E6C4F6C6FE5
:101310006A6701D0129AF28E12000001A1A103D0D7
:1013200046EC07F0FAD7A18112000001A19112004A
:101330009EB803D046EC07F0FBD70050AD6E01D845
:101340001200129CACA201D0128C1200ACB203D0DD
:0E13500046EC07F0FBD70000ACA2F8D7120065
:02135E0012007B
:1013600001C0DCFF02C0DCFF5CEC0AF0016A026A2B
:1013700065EC0AF068EC0AF000505008D8A0006A4A
:1013800000C049F1DDCF02F0DDCF01F01200006AAC
:1013900001014953D8B403D0490768EC0AF01200A0
:1013A00063EF0AF001C0DCFF02C0DCFF5CEC0AF076
:1013B000010E016E026A65EC0AF00101500E496FE0
:1013C000DDCF02F0DDCF01F0120001014953D8B4A6
:1013D00003D0490774EC0AF0120000C0DCFF01C022
:1013E000DCFF02C0DCFF016A026A65EC0AF0010161
:1013F00049515008006E74EC0AF08FEC0AF063EC6F
:101400000AF0DDCF02F0DDCF01F0DDCF00F01200F9
:101410000101486B31C047F16CEC07F011A602D016
:101420001196118A13A204D00101486701D0488F98
:10143000010148AF07D012B405D0489F488D5EEC3B
:1014400003F0EAD7010148AD09D0070E006E6DEC3C
:1014500003F003E00101489D488BDED7010148AB52
:1014600008D015C000F06DEC03F002E015C048F1A3
:10147000D3D70101485116E0F00B14E14851155C37
:1014800000EE16F0E926EFCF00F06DEC03F009E076
:101490000101482F06D01392016AB6EC02F06AEC03
:1014A00003F0BAD7315001014719D8B401D0472B06
:0214B000B3D7B0
:0E14B20001014A6B120012A203D046EC07F0B3
:1014C000FBD7128212001292120001C04AF11200E0
:1014D000A6B268EF0AF04AC1A9FFA66AA680010178
:1014E0004A2BA8CF00F0120001C0DCFFA6B276EFB5
:1014F0000AF04AC1A9FF00C0A8FFA66AA684F2CFDD
:1015000001F0550EF29EA76EAA0EA76EA68201BE2E
:10151000F28EA69401014A2BDDCF01F01200A6B293
:061520008FEF0AF012003B
:0A15260012011001FF00FF08C016BB
:10153000C905160002030001090220000101008014
:10154000FA0904000002FF00FF0007050102400045
:101550000107058102400001040309041403456DDD
:1015600062656420496E63400355314558205553E8
:10157000422064656D6F6E7374726174696F6E2062
:0E1580006669726D77617265000004000F00ED
:02158E00800ECD
:10159000F16EF06A9D6AA06A9E6AA16A9F6AA26A59
:1015A000D09E116A126A136A1EEC0BF0EEEC0AF080
:1015B000EBEC06F03DEC09F059EC0AF0AFEC09F069
:1015C00003EC03F0D2EC08F042EC00F02EEC05F056
:0C15D000FCEC07F00DEC0BF018EF0BF03A
:0415DC00C26A0F0EC2
:1015E000C16E070EB46EF18E030E896E926A8A6A1E
:0E15F000080E936E8B6AB40E946E846A12001D
:0215FE00900754
:1016000001000100DA07EE070E08010001000100E9
:0A16100034083C08CE086009C60942
:06161A00316AC70ECB6E21
:10162000750ECA6ECC6A9E929D82F28CF28E12006A
:0C16300049EC00F097EC03F008EF0AF022
:04163C0020EE5FF04D
:02164000120096
:020000040030CA
:02000000E13FDE
:02000200F6FE08
:02000400FFF803
:020006009AFF5F
:02000800FFFFF8
:02000A00FFFFF6
:02000C00FFFFF4
:0200000400F00A
:050000000455314558D4
:00000001FF
