:020000040000FA
:06000000F26A9BEF0AF01A
:020006000000F8
:08000800E9CFDCFFEACFDCFFC9
:10001000E1CFDCFFE2CFDCFF9EB20BD09EAA02D084
:100020007DEF08F09DA804D09EA802D00BEF09F048
:10003000FF009E92142ADDCFE2FFDDCFE1FFDDCF8E
:08004000EAFFDDCFE9FF11002A
:0800480020042E043B044904CE
:10005000FFFFFFFFFFFFFFFFFFFFFFFFFFFFFFFFB0
:10006000FFFFFFFFFFFFFFFFFFFFFFFFFFFFFFFFA0
:10007000FFFFFFFFFFFFFFFFFFFFFFFFFFFFFFFF90
:10008000FFFFFFFFFFFFFFFF1E686D6A160E6F6E1A
:100090006B681198120000C0DCFF01C0DCFF02C0D9
:1000A000DCFF03C0DCFF79D86D86010E006E020E06
:1000B000016EEC0E026E000E036E67EC06F0D0ECE3
:1000C00006F0DDCF03F0DDCF02F0DDCF01F0DDCFB4
:1000D00000F012001EC000F044EC07F011AC02D09A
:1000E000F5EC09F01E686D6A1198120019C01EF037
:1000F000D0EC06F044DA11B0FBD7D0EC06F04DECB2
:1001000003F0F6D700C0DCFFEFA644D0040EEBCF1F
:1001100000F0050EEB500010D8A43CD0010EEBCF40
:10012000E1FF000EEFB4040FE126040EE26EEF9C37
:10013000E7503C0B340AD8B4EF8CEF9AE650030B2F
:10014000006E050E00C0EBFF040EE7CFEBFFE6509C
:100150000010D8B4EF8AE650EF34060B090FEBCF4E
:10016000E5FFFF0FEBCFE5FF020EEBCFE5FF030E40
:10017000EB50E76EE78E010EEFB0030EEFB2020E0A
:10018000EF1AEF96EFB8EF86EF98EF74060EEB6A72
:10019000010FEB6ADDCF00F0120000C0DCFF01C0F0
:1001A000DCFF11981186706A716A726A736A746AE8
:1001B000756A766A776A786A796A7A6A7B6A7C6A2B
:1001C0007D6A7E6A7F6A04EE00F0200E006EEE6AA1
:1001D000002EFDD70401380E206F000E216F080E8F
:1001E000226F236B246B256B560E286F040E296F2C
:1001F0005E0E2A6F040E2B6F660E2C6F040E2D6F91
:10020000180E2E6F2F6B080E306F080E316F326B89
:10021000336B346B6E0E356F040E366F760E376FA0
:10022000040E386F7E0E396F040E3A6F380E3B6F36
:10023000100E3C6F400E3D6F3E6B3F6B406B860E69
:10024000436F040E446FC60E456F040E466F060ED4
:10025000476F050E486F180E496F020E4A6F180E51
:100260004B6F400E4C6F4D6B4E6B4F6B460E506F8D
:10027000050E516F860E526F050E536FC60E546FEA
:10028000050E556F04EE20F03DDF3CDF6E6A686AB4
:10029000696A6D8CE90E6D166D866D9C68A602D03C
:1002A0006896FCD7160E706E1182DDCF01F0DDCF9F
:1002B00000F012000401380E3B6F100E3C6F400E30
:1002C0003D6F3E6B3F6B406B860E436F040E446F79
:1002D000C60E456F040E466F060E476F050E486F3B
:1002E000180E496F020E4A6F180E4B6F400E4C6F7E
:1002F0004D6B4E6B4F6B460E506F050E516F860E59
:10030000526F050E536FC60E546F050E556F04EEF7
:100310003BF0F8DEF7DE160E706E1E0E716E118861
:10032000120000C0DCFFEFA64CD0EFBE4AD0050E95
:10033000EBCF00F0060EEB500012D8A406D0010E51
:10034000EBB402D0EFAC3DD0EF9C020EEBCFE1FF5F
:10035000030EEFB4040FE126040EE26EEF34060B39
:10036000080FEBCFE5FFFF0FEBCFE5FF050EEBCF5F
:10037000E5FF060EEB500809E76E010EEBB0E78CC7
:10038000EB70E78E010EEBA20AD0EB94030EEBCFDD
:1003900000F0050EEB50001A02E1010EEB84010E95
:1003A000EFB0030EEFB2020EEF1AEF96EFB8EF8642
:1003B000EF98EF74EF9AEFBCEF8A050EEB6A010F2E
:1003C000EB6ADDCF00F01200F00E0116030E0112F1
:1003D000EFAC08D0060EEB52D8A404D00752EB5273
:1003E000D8B40184EFBA26D0019201B823D001908D
:1003F000EF34060B080FEBCFE1FF010FEBCFE2FF6D
:10040000060EEB50E126070EEB50E222060EEB2A19
:10041000070ED8B0EB2A040EEB06EBCF00F0050E6A
:10042000D8A0EB06EB500012E7CF00F0D8A402D022
:10043000EF8A68DE120002C0DCFF03C0DCFFF00EB2
:100440000116030E0112EFBA2ED0019201BAEF8EFF
:1004500001B829D0019001AAEF9EEF34060B070FD7
:10046000EBCFE1FF010FEBCFE2FF050EEB50E126F2
:10047000060EEB50E22200C0E7FF050EEB2AEBCFA1
:1004800002F0060ED8B0EB2AEBCF03F0030EEB50D0
:100490000218D8A407D0040EEB500318D8A402D039
:1004A000EF8AEF9E3EDFDDCF03F0DDCF02F01200DA
:1004B000F00E0116030E0112EFBC14D0019201B828
:1004C00011D0EF9E01BC0AD0EFBA08D0050EEB5256
:1004D000D8A407D0060EEB52D8A403D00190EF8C1D
:1004E000EF8A1FDF120002C0DCFFF00E0116030EC0
:1004F0000112050EEBCF02F0060EEB500210D8A44D
:1005000007D00184EF50180B180AD8B4018609D01F
:10051000EFA607D0019201B804D001900184EF9EAC
:1005200000DFDDCF02F0120004EE20F04DD7708026
:10053000120004EE2EF07FD704EE2FF0EF901200A1
:1005400004EE2FF0EF80120004EE2EF0CCD704EE74
:100550002EF0AED704EE3BF037D704EE49F06BD760
:1005600004EE4AF0EF90120004EE4AF0EF80120021
:1005700004EE49F0B8D700C000F2118412001190C7
:1005800068A203D011806A6A120068A003D01180AB
:1005900004DE120068A624D06CCF00F06896000E2E
:1005A000F76E000EF86E00403E0B480FF66E000E20
:1005B000F722F8220900F5CFE9FF0800F5BE10D0B8
:1005C000F5CFEAFF1180EF300018020B080ED8A417
:1005D000100EEF1200B402D095DD1200A2DE120060
:1005E00068AC03D0689C1180120068AA03D0689A96
:1005F0001180120068A803D068981180120068A4C6
:0A06000003D068941180120012006C
:06060A000101EE0E526F2B
:10061000060E536F000E546F010E516F1200016AE7
:10062000A4EC02F001B602D019D8F9D712006D98E7
:10063000016AA4EC02F001B402D010D8F9D7A0EC02
:1006400002F01200200E016E99EC02F001A002D01F
:1006500005D8F8D70101684B692B120000C04AF198
:1006600001C04BF102C04CF103C04DF104C04EF18A
:1006700005C04FF106C050F1FC041F0B016E0101D3
:10068000516F01EE52F0FDCFEEFFFECFEEFFFFCF38
:10069000EEFF0600012EF7D7120011A202D0119230
:1006A00026D0010101EE51F05151016E030DF350BE
:1006B000E926014E08D00500ED50FF6EED50FE6EAC
:1006C000ED50FD6EF6D74AC100F04BC101F04CC1B0
:1006D00002F04DC103F04EC104F04FC105F050C10E
:1006E00006F05451FB6E5351FA6E5251F96E0101EE
:1006F000666B676B11AC03D0F5EC09F0119C080E2A
:10070000026E016A94EC02F001A002D0A7DFF9D7D3
:1007100001A402D0080E026E01EE5EF0025008083D
:10072000E92600C0EFFF022EECD70101686B696B70
:10073000000EFB6E070EFA6E5F510C08D8A023D096
:100740005F35E834FC0B520FD8B0FA2AD8B0FB2A38
:10075000F96EC3EF03F0C3EF03F0C3EF03F0C3EF91
:1007600003F0C3EF03F0A6EF04F00AEF04F0C3EFC9
:1007700003F0B5EF04F0AEEF04F0BDEF04F0BAEF14
:1007800004F0C3EF03F06D9897EC02F0B8D74FDF99
:1007900001010350655DD8A006D0D8A408D002504E
:1007A000645DD8B004D064C102F065C103F00250AA
:1007B0000310D8B412D004C0F6FF05C0F7FF06C07E
:1007C000F8FF0800F5CF00F03DDF042A000E0522F7
:1007D00006220206D8A00306EAD701016451070BDE
:1007E000D8A408D064516819D8A404D065516919F7
:1007F000D8B485D7016AA7EC02F001A280D72EDF1A
:10080000F9D715DF400E016EA7EC02F001A077D7F3
:1008100025DFF8D701016151FF0FD8A40DD0605337
:10082000D8A4B1D7CE0E046E140E056E000E066E5F
:10083000120E026E036AABD7FF0FD8A40DD060531F
:10084000D8A4A1D7E00E046E140E056E000E066E3D
:10085000200E026E036A9BD7FF0FD8A494D76005C1
:10086000D8B45DD060510308D8A08DD76051D8A40A
:10087000FF0FE824300FF66E150ED8B0010FF76E9B
:10088000000ED8B0010FF86E0900F5CF04F0080093
:10089000F5CF05F0000E0426150E0522000E066E9B
:1008A000000E062204C0F6FF05C0F7FF06C0F8FFE1
:1008B0000800F5CF02F0036A6051D8B468D76553D9
:1008C000D8A405D00250645DD8A064C102F0AFDEA8
:1008D0000250D8B482D7F5CF00F0B4DE024E7DD7F7
:1008E000030E006EAFDE024E78D7020E0426000E15
:1008F0000522062204C0F6FF05C0F7FF06C0F8FF78
:100900000800F5CF00F09EDE024E67D7006A9ADE3F
:10091000024E63D7042A000E05220622EBD787DE9B
:10092000D5EC09F0118C0050026E020F006E8ADEC9
:10093000030E006E87DE025205E00206ECEC09F0C1
:1009400081DEF9D7F5EC09F0119C47D770DE400E37
:10095000A7EC02F064DE60C16EFFD1D601016051E8
:10096000666F006E5AEC01F04CD766C100F06ADE8B
:100970005EDE33D760C167F144D767C100F062DE45
:0409800056DE2BD73D
:0C098400120099EC07F0010E006E78ECF8
:1009900007F0140E006E78EC07F0020E006E78EC93
:1009A00007F0120069EC07F00028026EF7EC09F07E
:1009B0001280024E05D069EC07F00AEC0AF0F9D774
:1009C00012EC0AF01290120099EC07F0020E006E81
:1009D00078EC07F0D5EC09F0118E0028026E78EC67
:1009E00007F0024E05D0ECEC09F078EC07F0F9D7EF
:1009F000F5EC09F0119E120069EC07F000C08AFFC7
:100A0000120069EC07F000C004F000C006F0D8EC5A
:100A100007F004502008D8A01200056E055207E028
:100A2000D89000360136023603360506F7D78B908C
:100A30000000000000008990045212E003AE8B9287
:100A400003BE8B8200360136023603368B8000905F
:100A500082B4008004060000000000008B90ECD7F8
:100A600000000000000089808B9200C004F099EC27
:100A700007F0030E006E78EC07F006C000F078EC8B
:100A800007F004C000F078EC07F001C000F078EC4B
:100A900007F002C000F078EC07F003C000F078EC3B
:100AA00007F0120069EC07F000C004F000C006F087
:100AB000D8EC07F004502008D8A01200056E0552AB
:100AC00007E0D89000360136023603360506F7D720
:100AD0008B900000000000008992045212E003AEE7
:100AE0008B9203BE8B8200360136023603368B8032
:100AF000009082B4008004060000000000008B908B
:100B0000ECD700000000000089828B9200C004F046
:100B100099EC07F0040E006E78EC07F006C000F0C8
:100B200078EC07F004C000F078EC07F001C000F0AA
:100B300078EC07F002C000F078EC07F003C000F09A
:100B400078EC07F0120069EC07F000C003F069ECE4
:100B500007F000C001F0ABEC07F06AEC09F0046AA2
:100B600003C000F072EC09F013A014D001EE00F005
:100B7000025210E00206EECF00F0E9CFDCFFEACF30
:100B8000DCFFA1EC09F0DDCFEAFFDDCFE9FF042AAD
:100B900013B0EED7CBEC09F099EC07F0050E006E20
:100BA00078EC07F0006A13B0008078EC07F004C01E
:100BB00000F078EC07F0120069EC07F000C001F0DB
:100BC00069EC07F0005040080050D8A0400E026EBB
:100BD0006AEC09F001C000F0A6EC09F0046A13A069
:100BE00019D00480025016E0036E01EE00F0E9CF48
:100BF000DCFFEACFDCFFACEC09F0DDCFEAFFDDCFB4
:100C0000E9FF00C0EEFF030603E0C0EC09F0EFD7F8
:100C1000C9EC09F0CBEC09F099EC07F0060E006E78
:100C200078EC07F004C000F078EC07F002C000F0A8
:100C300078EC07F001EE00F002520EE0EECF00F08B
:100C4000E9CFDCFFEACFDCFF78EC07F0DDCFEAFF8D
:100C5000DDCFE9FF0206F0D7120069EC07F00028AB
:100C6000016E69EC07F0EAEC08F00106FAE1120007
:100C700014C001F069EC07F0002AD0EC06F0145023
:100C80000118FBE0012A0006FAE1120099EC07F0D6
:0E0C90000B0E006E78EC07F0A5EC07F01200DA
:020C9E00196AD1
:100CA0000101AF0E416F010E426F010EE8CFAFF1AF
:100CB0006A0E436F010E446F000EE8CF6AF1A10E79
:100CC000456F000E466F000EE8CFA1F0120000C085
:100CD000DCFF01C0DCFF05C0DCFF030E056E11EE7A
:100CE00041F0E6CFE9FFE6CFEAFFEF5203E0052E41
:100CF000F8D7FF00DDCF05F000C0E1FF01C0E2FF43
:100D000000C0E6FF01C0E6FF02C0E6FF03C0E6FF49
:100D100004C0E6FF05C0E6FF06C0E6FF07C0E6FF29
:100D2000EE2A000E0006015AE55200C0EEFF01C097
:100D3000EEFF00C0EEFF01C0EEFFE1CFEEFFE2CF1D
:100D4000EEFF02C0EEFF03C0EEFFDDCF01F0DDCF0E
:100D500000F0120008C0DCFF09C0DCFF0AC0DCFFA5
:100D60000BC0DCFF0CC0DCFF0DC0DCFF0EC0DCFFE5
:100D70000FC0DCFF10C0DCFF13D8DDCF10F0DDCFDB
:100D80000FF0DDCF0EF0DDCF0DF0DDCF0CF0DDCFBD
:100D90000BF0DDCF0AF0DDCF09F0DDCF08F0120057
:100DA00000C0DCFF01C0DCFF02C0DCFF03C0DCFFD1
:100DB00004C0DCFF05C0DCFF06C0DCFF07C0DCFFB1
:100DC000E9CF00F0EACF01F001EE41F01944E92645
:100DD000EE50EFCFEAFFE96EFC501F0B026EEE6E95
:100DE00000C0EEFF01C0EEFFE1CFEEFFE2CFEEFF6D
:100DF000D9CFEEFFDACFEEFFFD50EE6EFE50EE6E75
:100E00000600022EF9D7192A19500208D8A0196A2B
:100E100001EE41F01944E926EE50EFCFEAFFE96E0A
:100E2000EF52F1E0EECF01F0EECF02F0EECF03F0A3
:100E3000F29EFC6AEECFE1FFEECFE2FFEECFD9FFEC
:100E4000EECFDAFFF28E0144FF0FE926000EEA2210
:100E50000500ED50FE6EED50FD6E012EF9D702C07B
:100E6000E9FF03C0EAFFDDCF07F0DDCF06F0DDCFFD
:100E700005F0DDCF04F0DDCF03F0DDCF02F0DDCFF4
:100E800001F0DDCF00F0120000500208D8A00DD014
:100E900001EE41F00044E926EE50EFCFEAFFE96EA3
:100EA000EF6A0050195CD8B4AED7120001EE41F0E1
:100EB0001944E926EE50EFCFEAFFE96EEF6AA3D7B7
:100EC000D0EC06F011BAC2D0120001014069C2EFA5
:100ED00004F001C0DCFFDDCF01F0F2DF01C0DCFF78
:100EE000016AAAEC02F001B0F6D7DDCF01F01200E2
:100EF00001C0DCFF195001014019D8A40BD0016AD0
:100F0000ADEC02F001A006D0DDCF01F0D9DF01C0C9
:100F1000DCFFF5D7DDCF01F0120001C0DCFF200EB1
:100F2000016EADEC02F0D89401B0D884DDCF01F0B1
:100F30001200010140BF06D04051191805E0AAEC8B
:100F400006F0F7D719C040F11200195001014019FD
:100F5000D8B44069120000C0DCFF01C0DCFF026AA7
:100F6000015214E001EE00F0E9CFDCFFEACFDCFF34
:100F7000B0DFDDCFEAFFDDCFE9FF02503F08D8A0A8
:100F800003D000C0EEFF022A012EEED7DDCF01F024
:100F9000DDCF00F012009DDF00C001F09ADF1200EB
:100FA00098DF00C002F095DF00C001F092DF120070
:100FB00090DF00C003F08DDF00C002F08ADF00C0C8
:100FC00001F087DF120000C0DCFF01C000F090DFFD
:100FD000DDCF00F08DDF120000C0DCFF02C000F0AA
:100FE00087DF01C000F084DFDDCF00F081DF120079
:100FF00000C0DCFF03C000F07BDF02C000F078DF40
:1010000001C000F075DFDDCF00F072DF120000C01C
:10101000DCFF01C0DCFF02C0DCFF03C0DCFF04C05A
:10102000DCFF640E006E020E016E4C0E026E100E9E
:10103000036E67EC06F0DDCF04F0DDCF03F0DDCF0B
:1010400002F0DDCF01F0DDCF00F01200FC6A22EEED
:1010500063F0119A11AE03D0119EF5EC09F012A0C5
:1010600003D0129012EC0AF02BDF11A8FDD7FC6A16
:1010700022EE63F0195001014019D8B4406929DF0C
:1010800005006E0EFD6E100EFE6E000EFF6E00501F
:101090001408D8A01CD000C0DCFF01C0DCFF016A2E
:1010A000D89000360136BE0E0024F66E150E0120D3
:1010B000F76EF86ADDCF01F0DDCF00F00900F5B082
:0E10C00006D0F5500900F5CFFAFFFB6AF96E75
:0210CE0002011D
:1010D0008C6B8D6B0201216B226B00011A6AAB6A6B
:1010E000240EAC6E080EB86EE10EAF6E040EB06E3C
:1010F000900EAB6E9D8A128C1200AB5000011C6EDC
:10110000AE501B6EABA202D0AB98AB881CB417D00C
:1011100002018C51010F8D5DD8A0210F00080FE254
:1011200002EE8EF08C51E926000EEA221BC0EFFF82
:101130008C29200802E28C6B01D08C2B128A1BEFC9
:1011400000F001C0DCFF016A02018D518C5DD8A066
:10115000210F006E0150D8A40068DDCF01F012000D
:1011600001C0DCFF016A02018C51010F8D5DD8A026
:10117000210F006E0150D8A40068DDCF01F01200ED
:10118000120012BA03D0AAEC06F0FBD7020102EE5D
:101190008EF08D51E926000EEA22EFCF00F08D2966
:1011A000200802E28D6B01D08D2B129A02018D5125
:1011B0008C5DD8A0210F000801E2128A1200000104
:1011C0001AA003D0AAEC06F0FAD71A801200000188
:1011D0001A90120012BC03D0AAEC06F0FBD7020151
:1011E00002EE23F02151E926000EEA2200C0EFFFB3
:1011F0002129400802E2216B01D0212B129C02011F
:101200002151010F225DD8A0410F000801E2128C8C
:101210009D8812001200128C02012251215DD8A07B
:10122000410F00081BE2020102EE23F02251E926E1
:10123000000EEA22EFCF1BF02229400802E2226BC7
:1012400001D0222B00011B50AD6E02012251215D05
:10125000D8A0410F000802E21BEF00F09D981BEFA1
:1012600000F002012251215DD8A0410F000803E2E5
:10127000AAEC06F0F6D7ACB203D0AAEC06F0FBD786
:081280000000ACA2F8D7120037
:0812880000D000D000D000D01E
:1012900000D000D000D000D000D000D000D000D0CE
:1012A00000D000D000D000D000D000D000D000D0BE
:1012B00000D000D000D000D000D000D000D000007E
:1012C000120081B21200AAEC06F081A2FCD7DCDF8A
:1012D0001200120012BE05D0128E938293808A9261
:1012E0008A90120000C0DCFF01C0DCFFD8900036FD
:1012F0009382CADFE6DF9380C7DF9390C5DF9392C6
:10130000C3DF080E016E00BE02D0939001D093801F
:101310000036BADF9382B8DFD4DF9392B5DF012EB7
:10132000F2D79380B1DF9382AFDFCBDF139081B030
:1013300001D013809392A8DFDDCF01F0DDCF00F064
:10134000120000C0DCFF01C0DCFFDBD700C0DCFF07
:1013500001C0DCFFD880CBD701C0DCFF9380080E32
:10136000016E0036009090DF93828EDFAADF81B09D
:1013700000809392012EF5D787DFDDCF01F01200B8
:10138000939082DF938280DF9CDF939293807CDF57
:1013900012009380F6D79392939076DF938274DF56
:0813A00090DF938071DF120061
:0813A800120001C0DCFF02C0CD
:1013B000DCFF30EC0AF0016A026A39EC0AF03CEC1E
:1013C0000AF000505008D8A0006A00C048F1DDCFF4
:1013D00002F0DDCF01F01200006A01014853D8B4D9
:1013E00003D048073CEC0AF0120037EF0AF001C0C6
:1013F000DCFF02C0DCFF30EC0AF0010E016E026A75
:1014000039EC0AF00101500E486FDDCF02F0DDCF5C
:1014100001F0120001014853D8B403D0480748EC4A
:101420000AF0120000C0DCFF01C0DCFF02C0DCFFDC
:10143000016A026A39EC0AF0010148515008006E55
:1014400048EC0AF063EC0AF037EC0AF0DDCF02F06A
:0A145000DDCF01F0DDCF00F0120047
:06145A000101496B1200C4
:1014600012A203D0AAEC06F0FBD71282120012924D
:10147000120001C049F11200A6B23CEF0AF049C1C6
:10148000A9FFA66AA6800101492BA8CF00F012008F
:1014900001C0DCFFA6B24AEF0AF049C1A9FF00C0B3
:1014A000A8FFA66AA684F2CF01F0550EF29EA76EA1
:1014B000AA0EA76EA68201BEF28EA6940101492B48
:0E14C000DDCF01F01200A6B263EF0AF01200B9
:0214CE00120109
:1014D0001001FF00FF08C016C9052000020300012B
:1014E0000902200001010080FA0904000002FF0047
:1014F000FF000705010240000107058102400001CD
:10150000040309041403456D62656420496E634059
:101510000355314558205553422064656D6F6E73F5
:1015200074726174696F6E206669726D776172653D
:06153000000004000F00A2
:0A153600800EF16EF06A9D6AA06A53
:101540009E6AA16A9F6AA26AD09E116A126A136A91
:1015500015EC0BF0F4EC0AF04FEC06F067EC08F039
:101560002DEC0AF0D4EC09F065EC07F069EC09F019
:1015700044EC00F005EC03F004EC0BF00FEF0BF083
:10158000010114C047F1D0EC06F011A602D011966B
:10159000118A145001014719D8B401D0472B12AA5F
:1015A0000DD099EC07F00A0E006E78EC07F0C1EC54
:0E15B00008F078EC07F0A5EC07F0E5D7E4D7DB
:0215BE006E10AD
:1015C000010001008609A409C80901000100010009
:1015D000F809020AA40A460BB80B01000100010039
:0815E00001005A0C700C8C0C88
:0815E800C26A0F0EC16E070E6E
:1015F000B46EF18E030E896E926A8A6A936A8B6A60
:08160000B40E946E846A12001E
:08160800146AC70ECB6E750ECB
:0E161000CA6ECC6A9E929D82F28CF28E1200FF
:02161E004BEC93
:0A16200000F007EC08F0C0EF0AF03C
:06162A0020EE5FF012004B
:020000040030CA
:02000000E13FDE
:02000200F6FE08
:02000400FFF803
:020006009AFF5F
:02000800FFFFF8
:02000A00FFFFF6
:02000C00FFFFF4
:0200000400F00A
:050000000455314558D4
:00000001FF
